{
  "contractName": "RichestSays",
  "abi": [
    {
      "inputs": [],
      "stateMutability": "nonpayable",
      "type": "constructor"
    },
    {
      "anonymous": false,
      "inputs": [
        {
          "indexed": false,
          "internalType": "string",
          "name": "author",
          "type": "string"
        },
        {
          "indexed": false,
          "internalType": "string",
          "name": "message",
          "type": "string"
        },
        {
          "indexed": false,
          "internalType": "uint256",
          "name": "value",
          "type": "uint256"
        }
      ],
      "name": "ShootDead",
      "type": "event"
    },
    {
      "anonymous": false,
      "inputs": [
        {
          "indexed": false,
          "internalType": "string",
          "name": "author",
          "type": "string"
        },
        {
          "indexed": false,
          "internalType": "string",
          "name": "message",
          "type": "string"
        },
        {
          "indexed": false,
          "internalType": "uint256",
          "name": "value",
          "type": "uint256"
        }
      ],
      "name": "ShootWon",
      "type": "event"
    },
    {
      "stateMutability": "payable",
      "type": "fallback",
      "payable": true
    },
    {
      "inputs": [],
      "name": "NextValue",
      "outputs": [
        {
          "internalType": "uint256",
          "name": "",
          "type": "uint256"
        }
      ],
      "stateMutability": "view",
      "type": "function",
      "constant": true
    },
    {
      "inputs": [],
      "name": "ShooterCounter",
      "outputs": [
        {
          "internalType": "uint8",
          "name": "",
          "type": "uint8"
        }
      ],
      "stateMutability": "view",
      "type": "function",
      "constant": true
    },
    {
      "stateMutability": "payable",
      "type": "receive",
      "payable": true
    },
    {
      "inputs": [],
      "name": "shoot_roulette",
      "outputs": [],
      "stateMutability": "payable",
      "type": "function",
      "payable": true
    },
    {
      "inputs": [
        {
          "internalType": "uint8",
          "name": "count",
          "type": "uint8"
        }
      ],
      "name": "get_value",
      "outputs": [
        {
          "internalType": "uint256",
          "name": "",
          "type": "uint256"
        }
      ],
      "stateMutability": "pure",
      "type": "function",
      "constant": true
    },
    {
      "inputs": [],
      "name": "cash_back",
      "outputs": [],
      "stateMutability": "payable",
      "type": "function",
      "payable": true
    }
  ],
  "bytecode": "0x608060405260006001556000600260006101000a81548160ff021916908360ff16021790555034801561003157600080fd5b5033600260016101000a81548173ffffffffffffffffffffffffffffffffffffffff021916908373ffffffffffffffffffffffffffffffffffffffff1602179055506000600260006101000a81548160ff021916908360ff16021790555061009f60006100aa60201b60201c565b6001819055506101a5565b60006001826100b991906100de565b60ff1666271471148780006100ce9190610115565b66ffffffffffffff169050919050565b60006100e982610169565b91506100f483610169565b92508260ff0382111561010a57610109610176565b5b828201905092915050565b600061012082610156565b915061012b83610156565b92508166ffffffffffffff048311821515161561014b5761014a610176565b5b828202905092915050565b600066ffffffffffffff82169050919050565b600060ff82169050919050565b7f4e487b7100000000000000000000000000000000000000000000000000000000600052601160045260246000fd5b6107ba806101b46000396000f3fe60806040526004361061004e5760003560e01c80630a0aa2de1461012957806327f2cee014610154578063449d5c90146101915780634df81845146101bc578063e7d0d5ab146101c6576100be565b366100be57600260019054906101000a900473ffffffffffffffffffffffffffffffffffffffff1673ffffffffffffffffffffffffffffffffffffffff166108fc349081150290604051600060405180830381858888f193505050501580156100bb573d6000803e3d6000fd5b50005b600260019054906101000a900473ffffffffffffffffffffffffffffffffffffffff1673ffffffffffffffffffffffffffffffffffffffff166108fc349081150290604051600060405180830381858888f19350505050158015610126573d6000803e3d6000fd5b50005b34801561013557600080fd5b5061013e6101d0565b60405161014b9190610551565b60405180910390f35b34801561016057600080fd5b5061017b6004803603810190610176919061046f565b6101e3565b6040516101889190610536565b60405180910390f35b34801561019d57600080fd5b506101a6610217565b6040516101b39190610536565b60405180910390f35b6101c461021d565b005b6101ce6103a9565b005b600260009054906101000a900460ff1681565b60006001826101f2919061056c565b60ff16662714711487800061020791906105a3565b66ffffffffffffff169050919050565b60015481565b600154341461022b57600080fd5b600061023933600154610414565b90506000600260009054906101000a900460ff1660ff1611156102d25760008054906101000a900473ffffffffffffffffffffffffffffffffffffffff1673ffffffffffffffffffffffffffffffffffffffff166108fc66038d7ea4c680006001546102a591906105e4565b9081150290604051600060405180830381858888f193505050501580156102d0573d6000803e3d6000fd5b505b60008160ff16141561030f576102e860006101e3565b6001819055506000600260006101000a81548160ff021916908360ff1602179055506103a6565b336000806101000a81548173ffffffffffffffffffffffffffffffffffffffff021916908373ffffffffffffffffffffffffffffffffffffffff1602179055506002600081819054906101000a900460ff168092919061036e90610674565b91906101000a81548160ff021916908360ff1602179055505061039f600260009054906101000a900460ff166101e3565b6001819055505b50565b600260019054906101000a900473ffffffffffffffffffffffffffffffffffffffff1673ffffffffffffffffffffffffffffffffffffffff166108fc479081150290604051600060405180830381858888f19350505050158015610411573d6000803e3d6000fd5b50565b600060644244858560405160200161042f94939291906104e8565b6040516020818303038152906040528051906020012060001c61045291906106cc565b905092915050565b6000813590506104698161076d565b92915050565b6000602082840312156104855761048461075b565b5b60006104938482850161045a565b91505092915050565b6104ad6104a882610618565b61069e565b82525050565b6104bc8161064a565b82525050565b6104d36104ce8261064a565b6106c2565b82525050565b6104e281610667565b82525050565b60006104f482876104c2565b60208201915061050482866104c2565b602082019150610514828561049c565b60148201915061052482846104c2565b60208201915081905095945050505050565b600060208201905061054b60008301846104b3565b92915050565b600060208201905061056660008301846104d9565b92915050565b600061057782610667565b915061058283610667565b92508260ff03821115610598576105976106fd565b5b828201905092915050565b60006105ae82610654565b91506105b983610654565b92508166ffffffffffffff04831182151516156105d9576105d86106fd565b5b828202905092915050565b60006105ef8261064a565b91506105fa8361064a565b92508282101561060d5761060c6106fd565b5b828203905092915050565b60006106238261062a565b9050919050565b600073ffffffffffffffffffffffffffffffffffffffff82169050919050565b6000819050919050565b600066ffffffffffffff82169050919050565b600060ff82169050919050565b600061067f82610667565b915060ff821415610693576106926106fd565b5b600182019050919050565b60006106a9826106b0565b9050919050565b60006106bb82610760565b9050919050565b6000819050919050565b60006106d78261064a565b91506106e28361064a565b9250826106f2576106f161072c565b5b828206905092915050565b7f4e487b7100000000000000000000000000000000000000000000000000000000600052601160045260246000fd5b7f4e487b7100000000000000000000000000000000000000000000000000000000600052601260045260246000fd5b600080fd5b60008160601b9050919050565b61077681610667565b811461078157600080fd5b5056fea2646970667358221220f1eb6b87ca5d0799b80da4a29e52fb464b6398501c3f0ac1a9471b6d574197e464736f6c63430008060033",
  "immutableReferences": {},
  "source": "// SPDX-License-Identifier: GPL-3.0\npragma solidity >=0.7.0 <0.9.0;\n\ncontract RichestSays {\n    address payable LastPayer;\n    uint256 public NextValue = 0;\n    uint8 public ShooterCounter = 0;\n\n    address payable _owner;\n\n    event ShootWon(string author, string message, uint256 value);\n    event ShootDead(string author, string message, uint256 value);\n\n    constructor() {\n        _owner = payable(msg.sender);\n        ShooterCounter = 0;\n        NextValue = get_value(0);\n    }\n\n    function shoot_roulette() payable external {\n        require(msg.value == NextValue);\n        uint8 randValue = random(msg.sender, NextValue);\n\n        if (ShooterCounter > 0){\n            LastPayer.transfer(NextValue - (1 ether * 0.001));\n        }\n\n        if (randValue == 0) {\n            NextValue = get_value(0);\n            ShooterCounter = 0;\n        } else {\n            LastPayer = payable(msg.sender);\n            ShooterCounter++;\n            NextValue = get_value(ShooterCounter);\n        }\n    }\n\n    function random(address payerAddress, uint256 value) private view returns (uint8) {\n        return uint8(uint256(keccak256(abi.encodePacked(block.timestamp, block.difficulty, payerAddress, value)))%100);\n    }\n\n    function get_value(uint8 count) public pure returns (uint256) {\n        return (1 ether * 0.011) * (count + 1);\n    }\n\n    function cash_back() external payable {\n        _owner.transfer(address(this).balance);\n    }\n\n    receive() external payable {\n        _owner.transfer(msg.value);\n    }\n\n    fallback() external payable {\n        _owner.transfer(msg.value);\n    }\n}",
  "sourcePath": "/home/henrique/Dev/truffle/RussianRouletteSmartContract/contracts/RussianRoulette.sol",
  "compiler": {
    "name": "solc",
    "version": "0.8.6+commit.11564f7e.Emscripten.clang"
  },
  "schemaVersion": "3.3.4",
  "updatedAt": "2021-06-25T02:17:24.401Z",
  "networkType": "ethereum",
  "devdoc": {
    "kind": "dev",
    "methods": {},
    "version": 1
  },
  "userdoc": {
    "kind": "user",
    "methods": {},
    "version": 1
  }
}